:100000000C9463000C94F5040C94CE040C948B00B7
:100010000C948B000C948B000C948B000C948B0034
:100020000C948B000C948B000C948B000C948B0024
:100030000C948B000C948B000C948B000C948B0014
:100040000C9484040C948B000C9452040C942C0497
:100050000C948B000C948B000C948B000C948B00F4
:100060000C948B000C948B000000000024002700EF
:100070002A0000000000250028002B0000000000DE
:1000800023002600290004040404040404040202DA
:100090000202020203030303030301020408102007
:1000A0004080010204081020010204081020000012
:1000B0000008000201000003040700000000000027
:1000C00000001C053A0C11241FBECFEFD8E0DEBFA4
:1000D000CDBF11E0A0E0B1E0E4EAFFE102C005908D
:1000E0000D92A633B107D9F721E0A6E3B1E001C034
:1000F0001D92AE3FB207E1F710E0C2E6D0E004C0C7
:100100002197FE010E949A0EC136D107C9F70E94BD
:1001100068050C94C50F0C940000AF92BF92CF926B
:10012000DF92EF92FF920F931F93CF93DF936C01B7
:100130007B018B01040F151FEB015E01AE18BF0898
:10014000C017D10759F06991D601ED91FC9101904A
:10015000F081E02DC6010995892B79F7C501DF9162
:10016000CF911F910F91FF90EF90DF90CF90BF90B4
:10017000AF900895FC01538D448D252F30E0842FDE
:1001800090E0821B930B541710F0CF9608950197BF
:100190000895FC01918D828D981761F0A28DAE0FAC
:1001A000BF2FB11D5D968C91928D9F5F9F73928F33
:1001B00090E008958FEF9FEF0895FC01918D828D5F
:1001C000981731F0828DE80FF11D858D90E008952C
:1001D0008FEF9FEF0895FC01918D228D892F90E084
:1001E000805C9F4F821B91098F73992708958FE33D
:1001F00091E00E94EB0021E0892B09F420E0822F9E
:10020000089580E090E0892B29F00E94F700811189
:100210000C9400000895FC01A48DA80FB92FB11D06
:10022000A35ABF4F2C91848D90E001968F7399272C
:10023000848FA689B7892C93A089B1898C9183700A
:1002400080648C93938D848D981306C00288F38903
:10025000E02D80818F7D80830895EF92FF920F9330
:100260001F93CF93DF93EC0181E0888F9B8D8C8D62
:1002700098131AC0E889F989808185FF15C09FB756
:10028000F894EE89FF896083E889F9898081837019
:10029000806480839FBF81E090E0DF91CF911F91C8
:1002A0000F91FF90EF900895F62E0B8D10E00F5FE9
:1002B0001F4F0F731127E02E8C8D8E110CC00FB6BF
:1002C00007FCFACFE889F989808185FFF5CFCE0157
:1002D0000E940B01F1CFEB8DEC0FFD2FF11DE35AC6
:1002E000FF4FF0829FB7F8940B8FEA89FB898081DA
:1002F0008062CFCFCF93DF93EC01888D8823B9F054
:10030000AA89BB89E889F9898C9185FD03C0808120
:1003100086FD0DC00FB607FCF7CF8C9185FFF2CF9D
:10032000808185FFEDCFCE010E940B01E9CFDF91E7
:10033000CF910895833081F028F4813099F0823094
:10034000A9F008958730A9F08830C9F08430B1F45D
:10035000809180008F7D03C0809180008F77809393
:100360008000089584B58F7784BD089584B58F7D0E
:10037000FBCF8091B0008F778093B000089580917B
:10038000B0008F7DF9CFCF93DF93282F30E0F901B4
:10039000E255FF4F8491F901E656FF4FD491F901E0
:1003A000EA57FF4FC491CC23A1F081110E949A011A
:1003B000EC2FF0E0EE0FFF1FE458FF4FA591B49132
:1003C000EC91ED2381E090E009F480E0DF91CF91A2
:1003D000089580E090E0FACF1F93CF93DF93282F0A
:1003E00030E0F901E255FF4F8491F901E656FF4FE5
:1003F000D491F901EA57FF4FC491CC23A9F0162FED
:1004000081110E949A01EC2FF0E0EE0FFF1FEE58D1
:10041000FF4FA591B4918FB7F894EC91111108C0DA
:10042000D095DE23DC938FBFDF91CF911F9108958C
:10043000DE2BF8CFCF93DF9390E0FC01E656FF4F21
:1004400024918A579F4FFC0184918823D1F090E03A
:10045000880F991FFC01E859FF4FA591B491FC0149
:10046000EE58FF4FC591D49161110EC09FB7F8941B
:100470008C91E22FE0958E238C932881E223E883F0
:100480009FBFDF91CF9108958FB7F894EC91E22B45
:10049000EC938FBFF6CF3FB7F89480913B019091DA
:1004A0003C01A0913D01B0913E0126B5A89B05C03D
:1004B0002F3F19F00196A11DB11D3FBFBA2FA92FE3
:1004C000982F8827BC01CD01620F711D811D911DE0
:1004D00042E0660F771F881F991F4A95D1F708954C
:1004E000CF93DF932091ED013091EE0144E0849FA2
:1004F000C0011124280F391FF90140815181628107
:100500007381452B462B472B61F4C091ED01D091AF
:10051000EE01C80FD91F0E944B02688379838A833A
:100520009B83DF91CF91089580E00C94700281E06D
:100530000C94700282E00C94700283E00C947002C0
:1005400084E00C94700285E00C94700286E00C94B8
:10055000700287E00C94700288E00C94700289E0CD
:100560000C947002CF93DF932091ED013091EE0156
:1005700044E0849FC0011124280F391FF9014081F4
:10058000518162817381452B462B472BD1F0E0913D
:10059000F601F091F701E80FF91F40815181628166
:1005A0007381452B462B472B61F4C091F601D09106
:1005B000F701C80FD91F0E944B02688379838A8391
:1005C0009B83DF91CF91089580E00C94B20281E08B
:1005D0000C94B20282E00C94B20283E00C94B2025A
:1005E00084E00C94B20285E00C94B20286E00C9494
:1005F000B20287E00C94B20288E00C94B20289E067
:100600000C94B2028F929F92AF92BF92CF92DF92E0
:10061000EF92FF924B015C010E944B026B017C0147
:100620000E944B026C197D098E099F09683E734038
:1006300081059105A8F321E0821A9108A108B1086B
:1006400088EEC80E83E0D81EE11CF11C81149104D1
:10065000A104B10429F7FF90EF90DF90CF90BF90F5
:10066000AF909F908F900895E82FF0E0882359F085
:10067000813059F0EE0FFF1FE050FF4F87E493E009
:10068000918380830895E898F5CFE998F3CF089592
:100690008230E8F4E82FF0E0EE0FFF1FE050FF4F4C
:1006A00071836083813041F0809169008C7F482B99
:1006B00040936900E89A089580916900837F440F10
:1006C000551F440F551F482B40936900E99A089520
:1006D0008091E0019091E101009711F00E943C0FA0
:1006E0008091E2019091E301009711F00E943C0F8C
:1006F0008091ED019091EE01892B41F08091ED0107
:100700009091EE01009711F00E943C0F8091F6014C
:100710009091F701892B41F08091F6019091F701BA
:10072000009711F00E943C0F8091F4019091F50127
:10073000892B41F08091F4019091F501009711F01F
:100740000E943C0F8091F2019091F301892B41F0BE
:100750008091F2019091F301009711F00E943C0FFB
:100760008091F0019091F101892B41F08091F0018D
:100770009091F101009711F00E943C0F1092E1015D
:100780001092E0011092E3011092E2011092EE014A
:100790001092ED011092F7011092F6011092F501FE
:1007A0001092F4011092F3011092F2011092F101F3
:1007B0001092F0010895FC0101900020E9F73197B3
:1007C000AF01481B590BBC018FE391E00C948D00E5
:1007D0008F929F92AF92BF920F931F93CF93DF930D
:1007E000CDB7DEB7A1970FB6F894DEBF0FBECDBF71
:1007F00019A2423008F44AE08E010F5D1F4F842E8B
:10080000912CB12CA12CA50194010E94780EE62F09
:10081000B901CA01EA30F4F4E05DD801EE938D012C
:10082000232B242B252B79F790E080E0109719F0EB
:10083000CD010E94DB03A1960FB6F894DEBF0FBE78
:10084000CDBFDF91CF911F910F91BF90AF909F903F
:100850008F900895E95CE1CF1F920F920FB60F922F
:1008600011242F933F934F935F936F937F938F93B5
:100870009F93AF93BF93EF93FF938FE391E00E9419
:100880000B01FF91EF91BF91AF919F918F917F915C
:100890006F915F914F913F912F910F900FBE0F90ED
:1008A0001F9018951F920F920FB60F9211242F933D
:1008B0008F939F93EF93FF93E0914F01F09150013D
:1008C0008081E0915501F091560182FD1BC090811D
:1008D000809158018F5F8F7320915901821741F0E9
:1008E000E0915801F0E0E15CFE4F958F8093580154
:1008F000FF91EF919F918F912F910F900FBE0F90CD
:100900001F9018958081F4CF1F920F920FB60F920F
:1009100011242F933F938F939F93AF93BF93809115
:10092000370190913801A0913901B0913A0130918D
:10093000360123E0230F2D3758F50196A11DB11D77
:10094000209336018093370190933801A0933901A9
:10095000B0933A0180913B0190913C01A0913D01FF
:10096000B0913E010196A11DB11D80933B01909372
:100970003C01A0933D01B0933E01BF91AF919F9187
:100980008F913F912F910F900FBE0F901F90189550
:1009900026E8230F0296A11DB11DD2CF1F920F9200
:1009A0000FB60F9211242F933F934F935F936F9342
:1009B0007F938F939F93AF93BF93EF93FF93E091B8
:1009C0000201F09103010995FF91EF91BF91AF9161
:1009D0009F918F917F916F915F914F913F912F9157
:1009E0000F900FBE0F901F9018951F920F920FB689
:1009F0000F9211242F933F934F935F936F937F93A5
:100A00008F939F93AF93BF93EF93FF93E091000178
:100A1000F09101010995FF91EF91BF91AF919F91E5
:100A20008F917F916F915F914F913F912F910F9097
:100A30000FBE0F901F901895EFE3F1E01382128222
:100A400088EE93E0A0E0B0E084839583A683B7832B
:100A50008EE091E09183808385EC90E09587848798
:100A600084EC90E09787868780EC90E0918B808B78
:100A700081EC90E0938B828B82EC90E0958B848B61
:100A800086EC90E0978B868B118E128E138E148ECF
:100A9000ECEDF1E08CEB94E7AAE9B1E4808391837B
:100AA000A283B3838AE090E09587848797878687BF
:100AB00082E090E00E94A00E2CE0FC0120832DE05B
:100AC00021839093F9018093F80182E00C94C30193
:100AD000CF93DF93CDB7DEB765970FB6F894DEBF3F
:100AE0000FBECDBF789484B5826084BD84B581602B
:100AF00084BD85B5826085BD85B5816085BD8091E9
:100B00006E00816080936E00109281008091810060
:100B10008260809381008091810081608093810058
:100B2000809180008160809380008091B10084601A
:100B30008093B1008091B00081608093B00080917B
:100B40007A00846080937A0080917A00826080933A
:100B50007A0080917A00816080937A0080917A0097
:100B6000806880937A001092C100E0914F01F0916B
:100B7000500182E08083E0914B01F0914C011082A2
:100B8000E0914D01F0914E018FEC8083109257015E
:100B9000E0915301F091540186E08083E09151018E
:100BA000F0915201808180618083E0915101F09148
:100BB0005201808188608083E0915101F09152015F
:100BC000808180688083E0915101F09152018081A1
:100BD0008F7D808361E085E00E941A0260E085E0FD
:100BE0000E94EC0161E086E00E941A0260E086E06B
:100BF0000E94EC01E090F801F090F9018091EF0182
:100C0000823011F00E94680385E18093EC0161E07D
:100C10000E941A0280EA96E8A1E0B0E08093E40125
:100C20009093E501A093E601B093E7018AE090E09C
:100C30009093E9018093E8019093EB018093EA019E
:100C400082E08093EF018091E0019091E101892B96
:100C500041F488E090E00E94A00E9093E10180931F
:100C6000E0018091E2019091E301892B41F488E059
:100C700090E00E94A00E9093E3018093E2018091A6
:100C8000ED019091EE01892B41F488E090E00E9403
:100C9000A00E9093EE018093ED018091F60190916A
:100CA000F701892B41F488E090E00E94A00E909318
:100CB000F7018093F6018091F0019091F101892B69
:100CC00041F484E090E00E94A00E9093F1018093A3
:100CD000F0018091F2019091F301892B41F484E0BD
:100CE00090E00E94A00E9093F3018093F201809116
:100CF000F4019091F501892B41F484E090E00E9489
:100D0000A00E9093F5018093F40119820FEF1FEF6D
:100D10008091EF012981281708F06FC0A091ED01A3
:100D2000B091EE01822F90E09C01220F331F220F21
:100D3000331FA20FB31F1D921D921D921C92139779
:100D4000E091F601F091F701E20FF31F108211829A
:100D500012821382F701E80FF91F2081880F991F73
:100D6000223049F1233009F445C0A091F001B0913F
:100D7000F101A80FB91F11961C930E93A091F201D7
:100D8000B091F301A80FB91F11961C930E932091F7
:100D9000F4013091F501820F931F208130E0DC01D6
:100DA00011963C932E9360E080810E941A02B981D3
:100DB000BF5FB983ADCF30E020E0A091F001B091EA
:100DC000F101A80FB91F11961C921E92A091F20179
:100DD000B091F301A80FB91F11963C932E93209167
:100DE000F4013091F501820F931FDC0111961C93E1
:100DF0000E93D9CF21E030E0E0CF64EF71E080E0E6
:100E000090E00E9402032090E2013090E30121ED86
:100E100032E24BE15FE36091DC017091DD01809192
:100E2000DE019091DF010E94060E26E636EA45EAD1
:100E300053E40E943D0C20E030E048EC52E40E9474
:100E4000060E20E034E244E759E40E94AE0C6A83C7
:100E50007B838C839D83E091E001F091E101FF832E
:100E6000EE830E944B022B013C018091EC0160E07B
:100E70000E94EC018BE090E00197F1F78091EC018A
:100E800061E00E94EC018091E8019091E9018230DB
:100E9000910538F0880F991F880F991F05970197C2
:100EA000F1F78091EC0160E00E94EC018091EA0191
:100EB0009091EB018230910538F0880F991F880FCF
:100EC000991F05970197F1F710E08091EF0118172E
:100ED00008F08DC0A091F201B091F301E12FF0E094
:100EE000CF01880F991FA80FB91F2D913C9137FD95
:100EF00034C0A091F001B091F101A80FB91F2D915C
:100F00003C91232B51F5A091F001B091F101A80F74
:100F1000B91F21E030E011963C932E931A30E8F48B
:100F2000E656F84F2091F2013091F301820F931FA2
:100F30000C949A0EA407AF07B707BF07C707CF07E0
:100F4000D707DF07E707EF07DC018D919C9143E0AE
:100F500050E064E972E00E9448031F5FB6CFFC01D5
:100F60008081918143E050E067E972E0F4CFDC01D9
:100F70008D919C9143E050E06AE972E0ECCFFC0176
:100F80008081918143E050E06DE972E0E4CFDC01C3
:100F90008D919C9143E050E060EA72E0DCCFFC016F
:100FA0008081918143E050E063EA72E0D4CFDC01BC
:100FB0008D919C9143E050E066EA72E0CCCFFC0159
:100FC0008081918143E050E069EA72E0C4CFDC01A6
:100FD0008D919C9143E050E06CEA72E0BCCFFC0143
:100FE0008081918143E050E06FEA72E0B4CF0E94CB
:100FF0004B024B015C01AC019B01241935094609E8
:101000005709288739874A875B87E12CFF24F394A7
:1010100031E039838091EF01E81608F05BC240911E
:10102000E4015091E5016091E6017091E7014A8B7E
:101030005B8B6C8B7D8B54E0E59E80011124688571
:1010400079858A859B852A893B894C895D896217C8
:10105000730784079507C0F1E091ED01F091EE016F
:10106000E00FF11F4081518162817381452B462B36
:10107000472B41F1E091F601F091F701E00FF11FEC
:101080004081518162817381452B462B472BD1F4DE
:10109000E091ED01F091EE01E00FF11F40815181EF
:1010A00062817381D501C401841B950BA60BB70B1C
:1010B00021E04A895B896C897D8984179507A60799
:1010C000B70718F020E001C021E0F222E091F4011E
:1010D000F091F5016E2D70E0660F771F7D876C87AC
:1010E000E60FF71F8081918197FD28C0E091ED0107
:1010F000F091EE01E00FF11F80819181A281B38117
:10110000892B8A2B8B2BD1F4E091F401F091F5011E
:10111000E60FF71F808191810E94C301019771F44E
:10112000C090ED01D090EE01C00ED11E0E944B0286
:10113000D6016D937D938D939C931397E091ED0170
:10114000F091EE01E00FF11F80819181A281B381C6
:10115000892B8A2B8B2B11F4F11082C0E091F201C4
:10116000F091F3012C853D85E20FF31F8081918181
:1011700097FD30C0E091F001F091F101E20FF31F13
:1011800080819181019711F0F11024C0E091F0016C
:10119000F091F1014C855D85E40FF51F808191810F
:1011A000019751F4E091F001F091F101E40FF51F86
:1011B00062E070E071836083E091F201F091F301ED
:1011C0008C859D85E80FF91F80819181823010F414
:1011D0000E943403E091F201F091F301AC85BD85EA
:1011E000EA0FFB1F8081918197FD4CC0E091ED01DA
:1011F000F091EE01E00FF11F80819181A281B38116
:10120000892B8A2B8B2B09F43DC0E091F001F091E2
:10121000F1012C853D85E20FF31F808191810297BA
:1012200089F5FF2079F1E091F001F091F101E20FF1
:10123000F31F43E050E05183408359E05E1510F105
:10124000EE2DF0E0EA5DF64F0C949A0E3209E109BA
:10125000F009FF090E0A1D0A2C0A3B0A4A0A590A1C
:101260001982B8CFE091F201F091F3016C857D8590
:10127000E60FF71F8081918142E050E064EE72E05A
:101280000E944803E091F401F091F5016C857D85A1
:10129000E60FF71F8081918197FD36C0E091ED0147
:1012A000F091EE01E00FF11F80819181A281B38165
:1012B000892B8A2B8B2B41F1E091F601F091F701FC
:1012C000E00FF11F80819181A281B381892B8A2B4C
:1012D0008B2BD1F4E091F401F091F501E60FF71FAB
:1012E000808191810E94C301892B71F4C090F60125
:1012F000D090F701C00ED11E0E944B02D6016D9313
:101300007D938D939C931397E091ED01F091EE0105
:10131000E00FF11F80819181A281B381892B8A2BFB
:101320008B2B79F08091F6019091F701080F191F2E
:10133000F80180819181A281B381892B8A2B8B2B2B
:1013400011F4F110C5C0E091F201F091F3012C8588
:101350003D85E20FF31F8081918197FD30C0E091C0
:10136000F001F091F101E20FF31F80819181039769
:1013700011F0F11024C0E091F001F091F1014C85E1
:101380005D85E40FF51F80819181039751F4E09111
:10139000F001F091F101E40FF51F64E070E071835A
:1013A00060838091F2019091F301AC85BD85A80F17
:1013B000B91F8D919C91823010F40E943403E39404
:1013C00029CEE091F201F091F3018C859D85E80F23
:1013D000F91F8081918142E050E067EE72E050CFCA
:1013E000E091F201F091F301AC85BD85EA0FFB1F9E
:1013F0008081918142E050E06AEE72E041CFE0915D
:10140000F201F091F3012C853D85E20FF31F8081FD
:10141000918142E050E06DEE72E032CFE091F20156
:10142000F091F3014C855D85E40FF51F808191817A
:1014300042E050E060EF72E023CFE091F201F091E2
:10144000F3016C857D85E60FF71F8081918142E075
:1014500050E063EF72E014CFE091F201F091F301FC
:101460008C859D85E80FF91F8081918142E050E0D5
:1014700066EF72E005CFE091F201F091F301AC85E7
:10148000BD85EA0FFB1F8081918142E050E069EF4A
:1014900072E0F6CEE091F201F091F3012C853D85EA
:1014A000E20FF31F8081918142E050E06CEF72E027
:1014B000E7CEE091F201F091F3014C855D85E40FF8
:1014C000F51F8081918142E050E06FEF72E0D8CE4D
:1014D000198275CFFF2021F0B981BB2309F487CD94
:1014E00020E08091EF01281708F092C0E091F2010E
:1014F000F091F301822F90E0BC01660F771FE60F99
:10150000F71F4081518157FD09C04091F001509172
:10151000F101460F571FFA01118210824091ED012F
:101520005091EE01880F991F880F991F480F591F7E
:10153000DA014D915D916D917C91EE81FF81E80F13
:10154000F91F452B462B472B71F0A091F601B09166
:10155000F701A80FB91F4D915D916D917C91452BBD
:10156000462B472BA1F4A091ED01B091EE01A80FFD
:10157000B91F4D915D916D917C91452B462B472B69
:1015800009F041C04EEF5FEF6FEF7FEF20C0A091F9
:10159000F601B091F701A80FB91F4D915D916D91C2
:1015A0007C91A091ED01B091EE01A80FB91FCD90F3
:1015B000DD90ED90FC904C195D096E097F091416C1
:1015C0001506160617061CF04FEF5FEFBA014083B1
:1015D000518362837383E091ED01F091EE01E80F96
:1015E000F91F10821182128213824091F6015091EC
:1015F000F701840F951FDC011D921D921D921C9214
:1016000013972F5F6ECF4DEF5FEF6FEF7FEFDFCF61
:10161000E090E001F090E10119828091EF01B98141
:10162000B81708F043C0E4E0BE9F80011124F70121
:10163000E00FF11F60817181828193810E94510DC1
:1016400020E030E040E05FE30E94060E2A813B810B
:101650004C815D810E94060E4B015C01020D131D41
:1016600020E030E040E85FE30E94A90C87FD0AC05B
:1016700020E030E048EC53E4C501B4010E94010EC3
:10168000181674F420E030E040E85FEBD8012D93A9
:101690003D934D935C931397F981FF5FF983BDCF21
:1016A000F80180829182A282B382F6CF2091E2017A
:1016B0003091E3013B832A83812C912C5401839444
:1016C0004AE0C501B4010E94E80380E291E00E9473
:1016D000DB03AA81BB81CD90DD90ED90FD90BB83B3
:1016E000AA83A7019601C701B6010E94730E882341
:1016F00079F183E291E00E94DB038FE291E00E94A6
:10170000DB03B2E08B169104A104B104B9F483E3C6
:1017100091E00E94DB0364EF71E080E090E00E94C2
:10172000020380E090E0892B09F46DCB0E94F70062
:10173000882309F468CB0E94000065CB8CE191E01E
:101740000E94DB0382E0882E912CA12CB12CB8CF13
:1017500026013701E89477F82FEF3FEF4FE75FE777
:10176000C301B2010E94730E81110DC02FEF3FEF34
:101770004FE75FE7C301B2010E94A90C18161CF4E1
:1017800087E291E0B8CF2FEF3FEF4FE75FE4C7016B
:10179000B6010E94010E18161CF48BE291E0ABCF4B
:1017A0002FEF3FEF4FE75FECC701B6010E94A90C96
:1017B00087FDF3CF20E030E0A901C701B6010E9408
:1017C000A90C87FF09C06DE28FE391E00E942D0113
:1017D000F7FAF094F7F8F0942AE037ED43EA5BE388
:1017E000C701B6010E943D0C2B013C010E94200D57
:1017F0006B017C010E944F0D9B01AC01C301B20142
:101800000E943C0C2B013C014AE0C701B6010E943A
:10181000E8036EE28FE391E00E942D0120E030E0CA
:1018200040E251E4C301B2010E94060E2B013C01CB
:101830000E94200D6B01F12CE12C4AE0C701B6019A
:101840000E94E803C701B6010E944F0D9B01AC0145
:10185000C301B2010E943C0C20E030E040E251E4C0
:101860000E94060E0E94200D90E080E04AE00E9457
:10187000E80343CF0C9468035058BB27AA270E9463
:10188000540C0C94C70D0E94B90D38F00E94C00D85
:1018900020F039F49F3F19F426F40C94B60D0EF4A1
:1018A000E095E7FB0C94B00DE92F0E94D80D58F39A
:1018B000BA17620773078407950720F079F4A6F535
:1018C0000C94FA0D0EF4E0950B2EBA2FA02D0B01FF
:1018D000B90190010C01CA01A0011124FF27591B75
:1018E00099F0593F50F4503E68F11A16F040A22F7B
:1018F000232F342F4427585FF3CF469537952795EC
:10190000A795F0405395C9F77EF41F16BA0B620BEA
:10191000730B840BBAF09150A1F0FF0FBB1F661F31
:10192000771F881FC2F70EC0BA0F621F731F841F74
:1019300048F4879577956795B795F7959E3F08F09A
:10194000B0CF9395880F08F09927EE0F979587955C
:1019500008950E948C0D08F481E008950E94C20C45
:101960000C94C70D0E94C00D58F00E94B90D40F0B4
:1019700029F45F3F29F00C94B00D51110C94FB0D2C
:101980000C94B60D0E94D80D68F39923B1F355233A
:1019900091F3951B550BBB27AA2762177307840782
:1019A00038F09F5F5F4F220F331F441FAA1FA9F318
:1019B00035D00E2E3AF0E0E832D091505040E69506
:1019C000001CCAF72BD0FE2F29D0660F771F881F67
:1019D000BB1F261737074807AB07B0E809F0BB0B5A
:1019E000802DBF01FF2793585F4F3AF09E3F51056E
:1019F00078F00C94B00D0C94FB0D5F3FE4F3983E2F
:101A0000D4F3869577956795B795F7959F5FC9F756
:101A1000880F911D9695879597F90895E1E0660FD7
:101A2000771F881FBB1F621773078407BA0720F050
:101A3000621B730B840BBA0BEE1F88F7E0950895B9
:101A40000E94E00D88F09F5798F0B92F9927B75161
:101A5000B0F0E1F0660F771F881F991F1AF0BA9552
:101A6000C9F714C0B13091F00E94FA0DB1E00895A9
:101A70000C94FA0D672F782F8827B85F39F0B93F9B
:101A8000CCF3869577956795B395D9F73EF4909505
:101A90008095709561957F4F8F4F9F4F0895E89483
:101AA00009C097FB3EF490958095709561957F4FA6
:101AB0008F4F9F4F9923A9F0F92F96E9BB27939554
:101AC000F695879577956795B795F111F8CFFAF464
:101AD000BB0F11F460FF1BC06F5F7F4F8F4F9F4F95
:101AE00016C0882311F096E911C0772321F09EE8F3
:101AF000872F762F05C0662371F096E8862F70E059
:101B000060E02AF09A95660F771F881FDAF7880F32
:101B10009695879597F90895990F0008550FAA0B88
:101B2000E0E8FEEF16161706E807F907C0F01216F0
:101B30001306E407F50798F0621B730B840B950BF3
:101B400039F40A2661F0232B242B252B21F4089548
:101B50000A2609F4A140A6958FEF811D811D0895E5
:101B600097F99F6780E870E060E008959FEF80EC50
:101B7000089500240A9416161706180609060895F3
:101B800000240A9412161306140605060895092E59
:101B90000394000C11F4882352F0BB0F40F4BF2BC8
:101BA00011F460FF04C06F5F7F4F8F4F9F4F089508
:101BB00057FD9058440F551F59F05F3F71F04795FE
:101BC000880F97FB991F61F09F3F79F087950895E3
:101BD000121613061406551FF2CF4695F1DF08C002
:101BE000161617061806991FF1CF8695710561051F
:101BF00008940895E894BB2766277727CB0197F9C7
:101C000008950E948C0D08F48FEF08950E94190E1C
:101C10000C94C70D0E94B90D38F00E94C00D20F041
:101C2000952311F00C94B00D0C94B60D11240C9466
:101C3000FB0D0E94D80D70F3959FC1F3950F50E0F6
:101C4000551F629FF001729FBB27F00DB11D639F6E
:101C5000AA27F00DB11DAA1F649F6627B00DA11D14
:101C6000661F829F2227B00DA11D621F739FB00DBA
:101C7000A11D621F839FA00D611D221F749F33272A
:101C8000A00D611D231F849F600D211D822F762FC3
:101C90006A2F11249F5750409AF0F1F088234AF0A0
:101CA000EE0FFF1FBB1F661F771F881F915050400C
:101CB000A9F79E3F510580F00C94B00D0C94FB0DDC
:101CC0005F3FE4F3983ED4F3869577956795B79593
:101CD000F795E7959F5FC1F7FE2B880F911D9695AD
:101CE000879597F908950E948C0D880B990B08959C
:101CF000A1E21A2EAA1BBB1BFD010DC0AA1FBB1F10
:101D0000EE1FFF1FA217B307E407F50720F0A21B81
:101D1000B30BE40BF50B661F771F881F991F1A94EE
:101D200069F760957095809590959B01AC01BD0118
:101D3000CF010895EE0FFF1F0590F491E02D099457
:101D40000F931F93CF93DF938230910510F482E0BD
:101D500090E0E091FC01F091FD0130E020E0B0E086
:101D6000A0E0309799F42115310509F44AC0281BE9
:101D7000390B24303105D8F58A819B8161157105B5
:101D800089F1FB0193838283FE0111C0408151815F
:101D90000281138148175907E0F04817590799F451
:101DA000109761F012960C93129713961C9332962B
:101DB000CF01DF91CF911F910F9108950093FC0106
:101DC0001093FD01F4CF2115310551F0421753074F
:101DD00038F0A901DB019A01BD01DF01F801C1CF93
:101DE000EF01F9CF9093FD018093FC01CDCFFE016F
:101DF000E20FF31F81939193225031093983288395
:101E0000D7CF2091FA013091FB01232B41F420918F
:101E10000601309107013093FB012093FA012091D4
:101E20000401309105012115310541F42DB73EB76C
:101E30004091080150910901241B350BE091FA01F2
:101E4000F091FB01E217F307A0F42E1B3F0B2817BC
:101E5000390778F0AC014E5F5F4F2417350748F023
:101E60004E0F5F1F5093FB014093FA0181939193B2
:101E70009FCFF0E0E0E09CCFCF93DF930097E9F0B5
:101E8000FC01329713821282A091FC01B091FD01F6
:101E9000ED0130E020E01097A1F420813181820F24
:101EA000931F2091FA013091FB012817390709F09F
:101EB00061C0F093FB01E093FA01DF91CF910895A7
:101EC000EA01CE17DF07E8F54A815B819E014115E3
:101ED0005105B1F7E901FB83EA8349915991C40F98
:101EE000D51FEC17FD0761F4808191810296840F64
:101EF000951FE90199838883828193819B838A83DB
:101F0000F0E0E0E012968D919C9113970097B9F55F
:101F10002D913C911197CD010296820F931F209134
:101F2000FA013091FB012817390739F6309751F53E
:101F30001092FD011092FC01B093FB01A093FA01F5
:101F4000BCCFD383C28340815181840F951FC817B2
:101F5000D90761F44E5F5F4F88819981480F591FFF
:101F6000518340838A819B8193838283211531052C
:101F700009F0B0CFF093FD01E093FC019ECFFD018D
:101F8000DC01C0CF13821282D7CF10E0C2E6D0E0CE
:101F900004C0FE010E949A0E2196C336D107C9F7EC
:041FA000F894FFCFE3
:101FA400470347030000FE018000000000002D01EC
:101FB4008D00BA007A01EB00C900DD00207C20000E
:101FC4003A20006E616E00696E66006F76660020CE
:061FD400636D000D0A0020
:00000001FF
